{
  "_format": "hh-sol-artifact-1",
  "contractName": "SharedWallet",
  "sourceName": "contracts/SharedWallet.sol",
  "abi": [
    {
      "inputs": [],
      "stateMutability": "nonpayable",
      "type": "constructor"
    },
    {
      "inputs": [],
      "name": "balance",
      "outputs": [
        {
          "internalType": "uint256",
          "name": "",
          "type": "uint256"
        }
      ],
      "stateMutability": "view",
      "type": "function"
    },
    {
      "inputs": [],
      "name": "deposit",
      "outputs": [],
      "stateMutability": "payable",
      "type": "function"
    },
    {
      "inputs": [],
      "name": "message",
      "outputs": [
        {
          "internalType": "string",
          "name": "",
          "type": "string"
        }
      ],
      "stateMutability": "view",
      "type": "function"
    },
    {
      "inputs": [
        {
          "internalType": "string",
          "name": "_message",
          "type": "string"
        }
      ],
      "name": "setMessage",
      "outputs": [],
      "stateMutability": "nonpayable",
      "type": "function"
    },
    {
      "inputs": [],
      "name": "walletOwner",
      "outputs": [
        {
          "internalType": "address",
          "name": "",
          "type": "address"
        }
      ],
      "stateMutability": "view",
      "type": "function"
    },
    {
      "inputs": [
        {
          "internalType": "address payable",
          "name": "_to",
          "type": "address"
        },
        {
          "internalType": "uint256",
          "name": "_total",
          "type": "uint256"
        }
      ],
      "name": "withdraw",
      "outputs": [],
      "stateMutability": "payable",
      "type": "function"
    }
  ],
  "bytecode": "0x608060405234801561001057600080fd5b50336000806101000a81548173ffffffffffffffffffffffffffffffffffffffff021916908373ffffffffffffffffffffffffffffffffffffffff16021790555061093c806100606000396000f3fe6080604052600436106100555760003560e01c80631ae879e81461005a578063368b877214610085578063b69ef8a8146100ae578063d0e30db0146100d9578063e21f37ce146100e3578063f3fef3a31461010e575b600080fd5b34801561006657600080fd5b5061006f61012a565b60405161007c91906105d9565b60405180910390f35b34801561009157600080fd5b506100ac60048036038101906100a79190610475565b61014e565b005b3480156100ba57600080fd5b506100c3610168565b6040516100d09190610656565b60405180910390f35b6100e161016e565b005b3480156100ef57600080fd5b506100f86101cd565b60405161010591906105f4565b60405180910390f35b61012860048036038101906101239190610439565b61025b565b005b60008054906101000a900473ffffffffffffffffffffffffffffffffffffffff1681565b8060029080519060200190610164929190610304565b5050565b60015481565b60003414156101b2576040517f08c379a00000000000000000000000000000000000000000000000000000000081526004016101a990610636565b60405180910390fd5b34600160008282546101c491906106ee565b92505081905550565b600280546101da90610808565b80601f016020809104026020016040519081016040528092919081815260200182805461020690610808565b80156102535780601f1061022857610100808354040283529160200191610253565b820191906000526020600020905b81548152906001019060200180831161023657829003601f168201915b505050505081565b6001548111156102a0576040517f08c379a000000000000000000000000000000000000000000000000000000000815260040161029790610616565b60405180910390fd5b80600160008282546102b29190610744565b925050819055508173ffffffffffffffffffffffffffffffffffffffff166108fc829081150290604051600060405180830381858888f193505050501580156102ff573d6000803e3d6000fd5b505050565b82805461031090610808565b90600052602060002090601f0160209004810192826103325760008555610379565b82601f1061034b57805160ff1916838001178555610379565b82800160010185558215610379579182015b8281111561037857825182559160200191906001019061035d565b5b509050610386919061038a565b5090565b5b808211156103a357600081600090555060010161038b565b5090565b60006103ba6103b5846106a2565b610671565b9050828152602081018484840111156103d257600080fd5b6103dd8482856107c6565b509392505050565b6000813590506103f4816108d8565b92915050565b600082601f83011261040b57600080fd5b813561041b8482602086016103a7565b91505092915050565b600081359050610433816108ef565b92915050565b6000806040838503121561044c57600080fd5b600061045a858286016103e5565b925050602061046b85828601610424565b9150509250929050565b60006020828403121561048757600080fd5b600082013567ffffffffffffffff8111156104a157600080fd5b6104ad848285016103fa565b91505092915050565b6104bf81610778565b82525050565b60006104d0826106d2565b6104da81856106dd565b93506104ea8185602086016107d5565b6104f3816108c7565b840191505092915050565b600061050b602f836106dd565b91507f596f75206172652061736b696e6720666f72206d6f7265207468616e2077652060008301527f63616e206769766520796f75203a2800000000000000000000000000000000006020830152604082019050919050565b60006105716029836106dd565b91507f436f6d65206f6e2c2070656e6e792d70696e636865722c2067696d6d6520736f60008301527f6d65206d6f6e65792e00000000000000000000000000000000000000000000006020830152604082019050919050565b6105d3816107bc565b82525050565b60006020820190506105ee60008301846104b6565b92915050565b6000602082019050818103600083015261060e81846104c5565b905092915050565b6000602082019050818103600083015261062f816104fe565b9050919050565b6000602082019050818103600083015261064f81610564565b9050919050565b600060208201905061066b60008301846105ca565b92915050565b6000604051905081810181811067ffffffffffffffff8211171561069857610697610898565b5b8060405250919050565b600067ffffffffffffffff8211156106bd576106bc610898565b5b601f19601f8301169050602081019050919050565b600081519050919050565b600082825260208201905092915050565b60006106f9826107bc565b9150610704836107bc565b9250827fffffffffffffffffffffffffffffffffffffffffffffffffffffffffffffffff038211156107395761073861083a565b5b828201905092915050565b600061074f826107bc565b915061075a836107bc565b92508282101561076d5761076c61083a565b5b828203905092915050565b60006107838261079c565b9050919050565b60006107958261079c565b9050919050565b600073ffffffffffffffffffffffffffffffffffffffff82169050919050565b6000819050919050565b82818337600083830152505050565b60005b838110156107f35780820151818401526020810190506107d8565b83811115610802576000848401525b50505050565b6000600282049050600182168061082057607f821691505b6020821081141561083457610833610869565b5b50919050565b7f4e487b7100000000000000000000000000000000000000000000000000000000600052601160045260246000fd5b7f4e487b7100000000000000000000000000000000000000000000000000000000600052602260045260246000fd5b7f4e487b7100000000000000000000000000000000000000000000000000000000600052604160045260246000fd5b6000601f19601f8301169050919050565b6108e18161078a565b81146108ec57600080fd5b50565b6108f8816107bc565b811461090357600080fd5b5056fea26469706673582212200eee70be11863e0d98189a8e8ee92b5137049ce7c5a26ec4feeab20aae5e5f1d64736f6c63430008000033",
  "linkReferences": {},
  "deployedLinkReferences": {}
}